:020000040800F2
:10000000501300200101000887200008E91E0008A5
:1000100085200008190300081D36000800000000B4
:1000200000000000000000000000000013010008B4
:100030008303000800000000170100080B240008DB
:100040001B0100081B0100081B0100081B01000820
:100050001B0100081B0100081B0100081B01000810
:100060001B0100081B0100081B01000859030008C0
:100070001B0100081B0100081B0100081B010008F0
:100080001B0100081B0100081B0100081B010008E0
:10009000B53500081B0100081B0100088503000896
:1000A0001B0100081B0100081B0100081B010008C0
:1000B0001B0100081B0100081B0100081B010008B0
:1000C0001B0100081B0100081B0100081B010008A0
:1000D0001B0100081B0100081B0100081B01000890
:1000E0001B0100081B0100081B010008DFF80CD0F1
:1000F00000F03CF800480047C138000850130020C9
:100100000648804706480047FEE7FEE7FEE7FEE7B1
:10011000FEE7FEE7FEE7FEE7FEE7FEE785240008D0
:10012000ED0000080649074A0868504343F23902C7
:10013000104408604008704701490860704700009B
:10014000B00100206D4EC64140EA01039B0703D079
:1001500009E008C9121F08C0042AFAD203E011F806
:10016000013B00F8013B521EF9D27047064C074D87
:1001700006E0E06840F0010394E807009847103477
:10018000AC42F6D3FFF7B6FFC03B0008E03B0008E7
:1001900070B58C1810F8015B15F0070301D110F849
:1001A000013B2A1106D110F8012B03E010F8016B76
:1001B00001F8016B5B1EF9D12B0705D40023521EF9
:1001C0000DD401F8013BFAE710F8013BCB1A921C61
:1001D00003E013F8015B01F8015B521EF9D5A1425F
:1001E000D8D3002070BD000070B504460068816857
:1001F000C943C9071CD1816821F00101816000F069
:10020000FFFD05460FE000BF00F0FAFD401B02288D
:1002100009D9A06A40F01000A062E06A40F0010035
:10022000E062012070BD20688068C043C007EBD049
:10023000002070BD10B50146406A826A12F0500F6E
:1002400005D0006A026BBDE8104008461047816A7D
:1002500041F40071816201688968C1F34241072954
:100260000CD1C16851B9816A21F480718162816ABF
:10027000C90403D4816A41F00101816200F03AF9B6
:1002800010BD10B5406A816A41F040018162C16AC7
:1002900041F00401C16200F054F910BD10B5406A8C
:1002A00000F04EF910BD0000F8B500260446009697
:1002B00000688168C943C90728D0816841F00101FD
:1002C0008160134813490068B0FBF1F000E0401E64
:1002D00000900028FBD100F093FD054611E000BF1F
:1002E00000F08EFD401B02280BD9A06A40F01000E0
:1002F000A062E06A40F00100E06284F8246001201E
:10030000F8BD20688068C043C007E9D10020F8BD6F
:10031000BC00002040420F00FEE7002070470000B4
:10032000034902480860002070470000F0070020E1
:10033000140000200648074A0068D0F81812002070
:100340000B5C1354401CC0B20828F9D3002070473E
:10035000140000204A000020014800F0B1BA00005B
:10036000440A002010B5046863604368102B0368DA
:1003700003D099600068C26010BD9A600068C160D7
:1003800010BDFEE74FF4807000F046BCF8B50025C4
:10039000009590F82420AE46012A1ED0012280F854
:1003A00024204A681F244FF47873072A17D206685E
:1003B000776B93FAA3FCBCFA8CFC521E02FB0CFC7C
:1003C00004FA0CF4A74393FAA3F3B3FA83F30C688B
:1003D0005A439440274377632DE00220F8BD066816
:1003E0000D2A14D2376B93FAA3FCBCFA8CFCD21FF3
:1003F00002FB0CFC04FA0CF4A74393FAA3F3B3FA40
:1004000083F30C685A4394402743376313E0F76A39
:1004100093FAA3FCBCFA8CFC0D3A02FB0CFC04FA28
:100420000CF4A74393FAA3F3B3FA83F30C685A438B
:1004300094402743F7620A683823072406680A2A8B
:1004400014D3F76893FAA3FCBCFA8CFC0A3A02FBBB
:100450000CFC04FA0CF4A74393FAA3F3B3FA83F366
:100460008C685A4394402743F76012E0376993FA47
:10047000A3FCBCFA8CFC02FB0CFC04FA0CF4A743B2
:1004800093FAA3F3B3FA83F38C685A439440274357
:1004900037610A68102A01D0112A20D1124B026854
:1004A0009A4217D193681B0219D4936843F400034E
:1004B00093600968102912D10C490D4A0968B1FBF3
:1004C000F2F101EB8101490000E0491E0091002991
:1004D000FBD104E0816A41F020018162012580F8AE
:1004E00024E02846F8BD000000240140BC000020A4
:1004F00040420F000B490878002811D10A480B4BE5
:1005000002881A800A4B82881A800A4B02891A8054
:10051000094B82891A80094A008A108001200870DC
:1005200070470000A60000207C0A0020AC000020DC
:10053000AE000020B0000020B2000020AA00002081
:10054000704770472DE9F04104004FF0000513D0CB
:10055000A06A002628B9E66284F82460204600F0EC
:100560008BF82046FFF740FEA16AC90600D420B1EF
:10057000A06A40F01000A06278E0A16A21F48851DE
:1005800041F00201A1626268E16902270A43E16861
:1005900097FAA7F70B46B7FA87F7B9400A43A1685D
:1005A0004FF48077B94209D0012907D05FF00001EC
:1005B000D4F814C0BCF1010F02D00AE03946F7E7C5
:1005C000F3B1A36A43F02003A362E36A43F001039B
:1005D000E3622368D3F804C02CF4694C4CEA010CA4
:1005E000C3F804C021688B68DFF884C003EA0C03F9
:1005F00013438B60A168B94210D001290ED016E0D8
:100600004FF4604CA3699CFAACFCBCFA8CFC5B1EFA
:1006100003FA0CF30B4343F40061DAE74FF4700183
:10062000256991FAA1F1B1FA81F16D1E8D40216821
:10063000CB6A23F470032B43CB62216889680D4B8E
:100640001940914208D1E662A16A21F0020141F00D
:100650000101A162BDE8F081A06A20F0020040F033
:100660001000A062E06A40F00100E0620120F1E7C2
:10067000FDF7E1FFFE0E1FFF30B505460068154986
:1006800085B0884224D11448816941F400718161A8
:100690008069694600F4007004901F2000900320D8
:1006A00001900E4800F0C4FA0E4C0D4880212060E5
:1006B00000206060C4E90201890021618900616154
:1006C0002021C4E90610204600F030FA2C62656251
:1006D00005B030BD00240140001002400008014078
:1006E00008000240440A00202DE9F04789460446EC
:1006F0003B4900683B4F0E1D9046884201D0B842EE
:1007000007D1306810F4702F03D001252846BDE8CA
:10071000F08794F8240001280CD0012084F82400EC
:100720002046FFF7C1FD05004FF0000004D084F81B
:100730002400EBE70220EAE7A16A40F60162914358
:1007400041F48071A1622168B94218D1326812F473
:10075000702F14D0A16A41F48011A162316849055B
:1007600005D5A16A21F4005141F48051A162A16A2A
:10077000C9040AD5E16A21F00601E16206E0A26A35
:1007800022F48012A2624968E9E7E06284F824005A
:10079000216A15488862216A1448C862216A14488F
:1007A000086321686FF0020008602068816841F4E6
:1007B00080718160216843464A464C31206A00F0CE
:1007C000DDF920688168C1F342410729816803D0BF
:1007D00041F48011816099E741F4A001FAE700003B
:1007E0000024014000280140350200089D02000855
:1007F0008302000870B5044690F8240001280DD04B
:10080000012084F824002046FFF74EFD02004FF03F
:10081000000005D084F82400104670BD022070BD91
:10082000A16A40F60163994341F48071A162224DAF
:1008300023682249AB4218D10E6816F4702F14D0E9
:10084000A66A46F48016A6620E68760505D5A66AE5
:1008500026F4005646F48056A662A66AF6040AD527
:10086000E66A26F00606E66206E0A66A26F4801628
:10087000A6625E68E9E7E06284F824006FF0020097
:1008800018602068436843F0200343602068836851
:10089000C3F34243072B05D1A84208D1096811F4DC
:1008A000702F04D0816841F480118160B4E78168C1
:1008B00041F4A001F9E700000028014004240140B0
:1008C0002DE9F05FDFF860820446D8F80020DFF8F9
:1008D00058B2954D944E944F0068DFF84C92DFF873
:1008E00048A20BF1080B1C35303644374FF4006139
:1008F0004FF4004C4FF4002E09F158090AF16C0A2C
:10090000584501D1082316E0A84201D1802312E006
:10091000B04201D10B460EE0B84201D163460AE075
:10092000484501D1734606E0504502D14FF400031B
:1009300001E04FF000631A4231D00268D24312073F
:100940002DD4026822F0080202602068584501D1C7
:10095000082114E0A84201D1802110E0B0420ED05D
:10096000B84201D161460AE0484501D1714606E02E
:10097000504502D14FF4000101E04FF00061C8F88A
:100980000410606B40F001006063042084F82100D3
:10099000002084F82000216B09B120468847624876
:1009A000D0F800C04FF4806120680A010B044FF4B6
:1009B000802E584502D14FF0040816E0A84202D11B
:1009C0004FF0400811E0B04201D188460DE0B84236
:1009D00001D1904609E0484501D1F04605E0504577
:1009E00002D14FF4800800E098461CEA080F33D08B
:1009F000D0F800C06FEA0C0C5FEA4C7C2CD4D0F825
:100A000000C05FEA8C6C05D4D0F800C02CF0040C58
:100A1000C0F800C02068584501D1042113E0A84265
:100A200001D140210FE0B0420DD0B84201D11146B2
:100A300009E0484501D1714605E0504502D14FF427
:100A4000800100E0194638484160112084F82100F7
:100A5000E16A09B120468847334AD2F800C05B46B4
:100A6000206851154FF4005B4FF4003E984202D1CC
:100A70004FF0020817E0A84202D14FF0200812E020
:100A8000B04201D188460EE0B84201D1D8460AE012
:100A9000484501D1F04606E0504502D14FF4001818
:100AA00001E04FF000781CEA080F3BD0D0F800C0FE
:100AB0006FEA0C0C5FEA8C7C34D4D0F800C05FEA9B
:100AC0008C6C05D4D0F800C02CF0020CC0F800C02B
:100AD0002068984201D1022114E0A84201D12021CE
:100AE00010E0B0420ED0B84201D159460AE0484564
:100AF00001D1714606E0504502D14FF4001101E0EA
:100B00004FF000715160606B6063012084F8210038
:100B1000002084F82000A16A002903D02046BDE807
:100B2000F05F0847BDE8F09F0000024070B520B1BB
:100B300090F82110002411B103E0012070BD80F86D
:100B40002040022180F8211003681A6843F6F071F2
:100B50008A43D0E901152943D0E903563543294397
:100B60004569294385692943C569294311431960AA
:100B70004463012180F82110002070BD70B5044647
:100B800090F82000012823D0012084F820000220C2
:100B900084F821002068056825F0010505602046DD
:100BA000FFF7E0FB2068016841F002010160206866
:100BB000016841F0040101602068016841F008010A
:100BC00001602068016841F001010160002070BDF2
:100BD000022070BD31B500F013F9044600F010F9A1
:100BE0000099001B8842F9D338BD0000084A10B5AF
:100BF0009188814209D19189906800F0F7F8054900
:100C00000128088802D0401E088010BD401CFBE768
:100C1000400B0020A8000020044910B50A680242D9
:100C200002D00860FFF7E2FF10BD0000140401408D
:100C30002DE9F84FDFF890A100220AF1040B1446C9
:100C400001274FF00F090BF1040E00BF0B6807FAE4
:100C500004F52B40AB4274D1DFF870C14E68A6EBAF
:100C60000C0866452BD00DDC032E34D005DC36B3E2
:100C7000012E19D0022E2FD11BE0112E16D0122ECC
:100C80002AD119E0B8F5881F19D006DCB8F5803FE5
:100C900015D0B8F5801F1FD111E0B8F5001F0ED098
:100CA000B8F5041F18D10AE0CA6815E0CA68121D19
:100CB00012E0CA6808320FE0CA680C320CE08A6899
:100CC0002AB1012A4FF0080203D0456104E0042252
:100CD00002E0056100E00022FF2B01D8064601E09A
:100CE00000F104064FEA840501D9A5F12005D6F8E4
:100CF00000C009FA05F82CEA080C02FA05F54CEADE
:100D0000050CC6F800C04D68ED0057D5304DAE69F2
:100D100046F00106AE61AD6924F0030605F0010559
:100D200000952C4D06EB050CDCF80850A6074FEAA1
:100D3000167809FA08F6B543274EB04202D10026CC
:100D400010E03BE0254EB04201D101260AE0244EDE
:100D5000B04201D1022605E0224EB04201D1032665
:100D600000E0042606FA08F62E43CCF808604D6829
:100D7000DAF80060ED03554601D51E4300E09E43BE
:100D80002E604D68DBF80060AD035D4601D51E4363
:100D900000E09E432E604D68DEF80060ED0275466F
:100DA00001D51E4300E09E432E604D68AD020E4DFE
:100DB0002E6801D51E4300E09E432E60641C102C5B
:100DC000FFF444AFBDE8F88F0004014000001110AB
:100DD000001002400000014000080140000C0140EA
:100DE00000100140001401400C04014080680840DC
:100DF00000D0012070470AB1016170470904FBE788
:100E00000148006870470000B800002002480168EF
:100E1000491C016070470000B8000020074810B569
:100E2000016841F010010160032000F07DF800200E
:100E300000F006F800F016F8002010BD0020024077
:100E400010B5044600F0B4FC4FF47A71B0FBF1F039
:100E500001F032F800222146501E00F045F8002033
:100E600010BD0000184808B5816941F00101816199
:100E7000806900F001000090032000F055F8002286
:100E800011466FF00B0000F02FF8002211466FF0B2
:100E90000A0000F029F8002211466FF0090000F066
:100EA00023F800221146101F00F01EF80022114600
:100EB000501E00F019F80548416821F0E06141F04A
:100EC0000071416008BD00000010024000000140B8
:100ED00000F01F02012191404009800000F1E02054
:100EE000C0F8001170470000F0B40E4B1B680C46B0
:100EF000C3F30223C3F10705042D00D90425191DEE
:100F0000072901D2002300E0DB1E012606FA05F1C5
:100F1000491E214099409E40761E16403143F0BC48
:100F200001F0B2B80CED00E0064900F007020868D5
:100F30004FF6FF03184040EA0220034A10430860BE
:100F4000704700000CED00E00000FA0510B50C063B
:100F500005D501F07F0100EB4110283003E000EBE4
:100F6000411000F5027099B232B101228272C18043
:100F7000190C0181002010BD002282728180F9E7E6
:100F8000704700EB4112D0F81C04D26B01F007BD92
:100F900000EB4112D0F81C04D2F81C2201F054BD21
:100FA00010B504460A460B0601F07F0004EB401121
:100FB00001D5283101E001F502710870D0094870AF
:100FC00094F8E803012809D0012084F8E803206898
:100FD00002F012F9002084F8E80310BD022010BDD1
:100FE00070B50A460446090602F07F0003D504EBFB
:100FF0004011283103E004EB421101F50271002594
:101000008D700870D009487094F8E803012809D061
:10101000012084F8E803206802F096F984F8E85388
:10102000002070BD022070BD70B504460D460E064E
:1010300001F07F0004EB401101D5283101E001F5FA
:1010400002710870E80948700A61CB7094F8E803EF
:10105000012809D0012084F8E803206801F09CFFF2
:10106000002084F8E80370BD022070BD70B504460E
:101070000E4601F07F0004EB401101F507710025D9
:101080002CC101F81F5C01F8200D94F8E803012839
:101090000AD0012084F8E8037006206802F0AEF957
:1010A00084F8E853002070BD022070BD70B50D4675
:1010B0000446090605F07F0003D504EB40112831F2
:1010C00003E004EB451101F5027101228A700870FA
:1010D000E809487094F8E803012807D084F8E82369
:1010E000206802F066F9680602D006E0022070BDB2
:1010F00004F57B71206802F025F9002084F8E803EC
:1011000070BD70B504460E4601F07F0004EB40113F
:101110003C3100252CC1012201F81F2C01F8200DC3
:1011200094F8E803012809D084F8E82370062068C1
:1011300002F064F984F8E853002070BD022070BD0D
:1011400010B50446006802F03BFA000402D52046C0
:1011500000F0AAFF206802F033FA40050CD52068A1
:1011600030F8441F21F480610180204600F0ECF843
:101170000021204600F0FDF8206802F021FA40042A
:1011800005D5206830F8441F21F480410180206893
:1011900002F016FA800405D5206830F8441F21F4C7
:1011A00000510180206802F00BFAC00413D52068BA
:1011B00030F8401F21F00401018021684FF43D40C8
:1011C000A1F84000204600F0CCF8206830F8441F19
:1011D00021F480510180206802F0F2F900051AD54F
:1011E000206830F8441F21F400610180206830F845
:1011F000401F41F008010180206830F8401F41F095
:1012000004010180206802F0DBF9C043C00402D56C
:10121000204600F0E3F8206802F0D2F9800508D5F6
:10122000206830F8441F21F400710180204600F04E
:101230009CF8206802F0C4F9C00505D5206830F894
:10124000441F21F48071018010BD00002DE9F041A0
:1012500086B004004FF0000504D094F8E90300269E
:1012600020B108E0012006B0BDE8F08184F8E86311
:10127000204600F04BF8032084F8E903206802F0D0
:101280005AF804F11001142288466846FEF75CFF04
:1012900094E80F0001F0AEFF0021206802F0A3F9EE
:1012A0005FF0010704EB451080F8297000F8285F13
:1012B0008581C670066146616D1C86610F2DF1D374
:1012C0005FF0000004EB401181F8096281F8080228
:1012D000888681F80B62C1F81862C1F81C62401C54
:1012E000C1F820620F28EDD3142241466846FEF76C
:1012F0002BFF94E80F0002F015F884F8246084F8BE
:10130000E973206802F00CF80020ACE708B500682B
:101310000B49884212D10B48C16941F40001C161F7
:10132000C069002200F40000009011461420FFF76D
:10133000DBFDBDE808401420FFF7CABD08BD000072
:10134000005C00400010024010B504460121D0F8B6
:101350001C0401F05FFCD4F81C04BDE8104001F04F
:1013600028BCD0F81C0401F043BCD0F81C0401F0E8
:1013700045BC10B5044690F8E80301280BD00120C5
:1013800084F8E80384F82410206802F02EF9002085
:1013900084F8E80310BD022010BDD0F81C2400F52D
:1013A0007B71104601F040BC10B5044690F8E8038C
:1013B000012810D0012084F8E80301462046FFF7F9
:1013C000DFFD206801F0AAFF206802F0ECF80020A1
:1013D00084F8E80310BD022010BD000010B50446DB
:1013E000D0F81C0401F05BFCA069002804D003487D
:1013F000016841F00601016010BD000010ED00E041
:101400002DE9F84305460078444CC00771D0E069E7
:1014100040F08050E061E069414E00F08050009063
:10142000306840F480703060FFF7EAFC074604E063
:10143000FFF7E6FCC01B642831D83068C005F7D53B
:10144000206AA98800F4407001F44071884250D0AD
:10145000206A0126310491FAA1F2B2FA82F29300D5
:10146000304A20F440701344C3F8006491FAA1F1AB
:10147000B1FA81F102EB81010023C1F8003420624E
:10148000800730D5FFF7BCFCB046074641F28839EB
:10149000022607E0FFF7B4FCC11B494502D903202F
:1014A000BDE8F88396FAA6F0B0FA80F040F040006C
:1014B000B8EB501F01D120680BE096FAA6F0B0FA05
:1014C00080F040F04000B6EB501F01D1206A00E0F0
:1014D000606A96FAA6F2B2FA82F202F01F0208FAE5
:1014E00002F10842D6D0206A696820F440700843AF
:1014F00020622878800705D56068A96820F44040FC
:10150000084360602878C00605D56068E96820F463
:101510008000084360600020C2E700000010024025
:1015200000700040000042422DE9F047DFF8789259
:1015300005460E46D9F80000022300F007070120F7
:1015400041044206994C41F28838B74271D2D9F829
:1015500000C02CF0070C4CEA060CC9F800C0D9F802
:10156000007007F00707B7426FD12E78B60705D590
:101570006668AF6826F0F0063E4366602E78F60790
:1015800056D06E68012E0BD0022E1ED093FAA3F116
:10159000B1FA81F141F02001490924D0216823E00A
:1015A00091FAA1F2B2FA82F242F02002520901D07D
:1015B000226800E0626A91FAA1F1B1FA81F101F0CA
:1015C0001F018840024240D017E092FAA2F1B1FA1E
:1015D00081F141F02001490901D0216800E0616AF0
:1015E00092FAA2F202E0616A93FAA3F2B2FA82F2EC
:1015F00002F01F029040014227D0606820F00300F3
:1016000030436060FFF7FCFB06466868012809D09C
:101610000228474613D01EE0FFF7F2FB801BB842BA
:1016200001D992E047466068C0F381000128F3D1F8
:10163000A1E015E0FFF7E4FB801BB84273D86068B7
:10164000C0F381000228F5D195E092E0FFF7D8FBC6
:10165000801BB84279D8606810F00C0FF6D18AE090
:101660002F78BF0707D56768D5F808C027F0F007BF
:1016700047EA0C0767602F78FF076DD06F68012F6E
:101680000BD0022F1ED093FAA3F1B1FA81F141F0F1
:101690002001490924D0216823E091FAA1F2B2FA8D
:1016A00082F242F02002520901D0226800E0626A10
:1016B00091FAA1F1B1FA81F101F01F0188400242D3
:1016C00057D017E092FAA2F1B1FA81F141F020016E
:1016D000490901D0216800E0616A92FAA2F202E0B1
:1016E000616A93FAA3F2B2FA82F202F01F0290400A
:1016F00001423ED0606820F0030038436060FFF78D
:101700007FFB07466868012807D0022811D01FE038
:10171000FFF776FBC11B414517D86068C0F3810015
:101720000128F5D118E010E0FFF76AFBC11B414525
:101730000BD86068C0F381000228F5D10CE000BF2F
:10174000FFF75EFBC11B414502D90320BDE8F087CE
:10175000606810F00C0FF3D1D9F8001021F00701E8
:101760003143C9F80010D9F8000000F00700B0427A
:1017700001D00120EAE72878400705D56068E968CC
:1017800020F4E060084360602878000706D56068B0
:10179000296920F4605040EAC10060600020FFF732
:1017A0004FFB0020D2E70000002002400010024062
:1017B00000B500F017F808494968F02292FAA2F241
:1017C00001F0F001B2FA82F2D140044A515CC84003
:1017D0000349086000BD000000100240AF3B000854
:1017E000BC00002010B519A385B00FCB8DE80F0009
:1017F0001AA01B4B006804905A681A4802F00C01AA
:1018000004291DD008291BD14FF4701494FAA4F4B4
:1018100002F47011B4FA84F4E140D2031DF801100F
:1018200010D55A684FF4003393FAA3F302F4003250
:10183000B3FA83F3DA4004AB9A5CB0FBF2F04843AE
:1018400005B010BD08484843FAE70000020304054C
:10185000060708090A0B0C0D0E0F101001020000FC
:101860000010024000127A0000093D002DE9F84FF7
:1018700005460078FA4EC0074FF0010425D0706885
:101880006704C0F38100012807D07068C0F38100AD
:1018900002281BD17068C00318D597FAA7F0B0FAD8
:1018A00080F040F02000400901D0306800E0706A0C
:1018B00097FAA7F1B1FA81F101F01F0104FA01F1E1
:1018C000084202D06868002876D081E0306820F4B1
:1018D00080303060306820F480203060FFF790FA6C
:1018E000804605E0FFF78CFAA0EB080064287CD85E
:1018F00097FAA7F0B0FA80F040F02000400901D03C
:10190000306800E0706A97FAA7F1B1FA81F101F04E
:101910001F0104FA01F10842E4D16868B0F5803F84
:101920000BD010B1B0F5A02F11D0306820F480306A
:101930003060306820F4802002E0306840F480306D
:101940003060686820B3FFF75BFA80460AE03068D1
:1019500040F480203060F0E7FFF752FAA0EB080077
:101960006428C4D897FAA7F0B0FA80F040F02000BD
:10197000400901D0306800E0706A97FAA7F1B1FA27
:1019800081F101F01F0104FA01F10842E4D01FE0E7
:10199000FFF736FA804605E0FFF732FAA0EB0800C1
:1019A0006428A4D897FAA7F0B0FA80F040F020009D
:1019B000400902D0306801E0B7E0706A97FAA7F1F9
:1019C000B1FA81F101F01F0104FA01F10842E3D1FB
:1019D0002878DFF8908280074FF000094FF0020767
:1019E0005AD5706810F00C0F00E07AE14FF0F80B58
:1019F00007D07068C0F3810002281BD17068C00353
:101A000018D497FAA7F0B0FA80F040F0200040090F
:101A100001D0306800E0706A97FAA7F1B1FA81F15D
:101A200001F01F0104FA01F108422AD028690128B7
:101A30007BD126E0286980B394FAA4F0B0FA80F054
:101A400048F82040FFF7DCF9824605E0FFF7D8F9B7
:101A5000A0EB0A00022884D897FAA7F0B0FA80F029
:101A600040F02000400901D0306800E0706A97FA29
:101A7000A7F1B1FA81F101F01F0104FA01F1084266
:101A8000E4D030689BFAABF26969B2FA82F220F0D6
:101A9000F80091400843306025E0FFE794FAA4F194
:101AA000B1FA81F148F82190FFF7AAF9824605E0E2
:101AB000FFF7A6F9A0EB0A000228CCD897FAA7F006
:101AC000B0FA80F040F02000400901D0306800E01A
:101AD000706A97FAA7F1B1FA81F101F01F0104FAD7
:101AE00001F10842E4D1287800076ED5A869B8B39F
:101AF00094FAA4F0B0FA80F008EB8000C0F88044BB
:101B0000FFF77EF9824605E0FFF77AF9A0EB0A00BD
:101B10000228A0D897FAA7F0B0FA80F040F0600051
:101B2000B4EB501F02D130680CE096E197FAA7F0B1
:101B3000B0FA80F040F06000B7EB501F01D1306A7E
:101B400000E0706A97FAA7F1B1FA81F101F01F0184
:101B500004FA01F21042D7D00120FFF73BF834E03D
:101B6000FFE794FAA4F1B1FA81F108EB8101C1F821
:101B70008094FFF745F9824606E000BFFFF740F981
:101B8000A0EB0A00022898D897FAA7F0B0FA80F0E4
:101B900040F06000B4EB501F01D130680BE097FAC1
:101BA000A7F0B0FA80F040F06000B7EB501F01D111
:101BB000306A00E0706A97FAA7F1B1FA81F101F09A
:101BC0001F0104FA01F21042D8D12878400770D5DD
:101BD000F06940F08050F061F069DFF88CB000F0FF
:101BE00080500090DBF8001041F48071CBF80010B9
:101BF000FFF706F9824605E0FFF702F9A0EB0A00BD
:101C000064286ED8DBF80000C005F5D5306A20F0F6
:101C100001003062306A20F004003062FFF7F0F813
:101C2000834641F2883A05E0FFF7EAF8A0EB0B01A2
:101C3000514556D897FAA7F0B0FA80F040F040002E
:101C4000B4EB501F01D1306811E097FAA7F0B0FA59
:101C500080F040F04000B7EB501F07D1306A06E03B
:101C6000001002400000424200700040706A97FA83
:101C7000A7F1B1FA81F101F01F0104FA01F1084264
:101C8000D2D1E86801280AD008B1052812D0306AFC
:101C900020F001003062306A20F0040002E0306A77
:101CA00040F001003062E86898B3FFF7A9F8834676
:101CB0000CE05AE0306A40F004003062EFE700BF09
:101CC000FFF79EF8A0EB0B0151450AD897FAA7F051
:101CD000B0FA80F040F04000B4EB501F02D1306801
:101CE0000CE09DE097FAA7F0B0FA80F040F04000D9
:101CF000B7EB501F01D1306A00E0706A97FAA7F184
:101D0000B1FA81F101F01F0204FA02F10842D7D0C2
:101D10002BE0FFE7FFF774F8834605E0FFF770F864
:101D2000A0EB0B0151457BD897FAA7F0B0FA80F0F1
:101D300040F04000B4EB501F01D130680BE097FA3F
:101D4000A7F0B0FA80F040F04000B7EB501F01D18F
:101D5000306A00E0706A97FAA7F1B1FA81F101F0F8
:101D60001F0204FA02F10842D8D1E86980B3716811
:101D7000C1F38101022970D04FF080714F00022819
:101D8000484609D091FAA1F1B1FA81F148F8210051
:101D9000FFF736F8054669E0894691FAA1F1B1FAF4
:101DA00081F1C24648F82100FFF72AF8804605E095
:101DB000FFF726F8A0EB0800022854D897FAA7F0FE
:101DC000B0FA80F040F02000400902D0306801E015
:101DD00061E0706A97FAA7F1B1FA81F101F01F0191
:101DE00004FA01F10842E3D1286AB0F5803F05D139
:101DF0007068A96820F4003008437060D5E90801D4
:101E00000843716821F474110843706099FAA9F0CD
:101E1000B0FA80F04AF82040FEF7F2FF054606E0EF
:101E200021E000BFFEF7ECFF401B02281BD897FA09
:101E3000A7F0B0FA80F040F02000400901D03068EF
:101E400000E0706A97FAA7F1B1FA81F101F01F0181
:101E500004FA01F10842E5D01DE01EE0FEF7D0FFD4
:101E6000401B022802D90320BDE8F88F97FAA7F09B
:101E7000B0FA80F040F02000400901D0306800E066
:101E8000706A97FAA7F1B1FA81F101F01F0104FA23
:101E900001F10842E2D10020E6E70120E4E74FF03B
:101EA000E0210428086903D020F00400086170478D
:101EB00040F00400FAE7704710B5401EB0F1807F93
:101EC00001D3012010BD4FF0E02460610F216017A5
:101ED00000F0DAF80020A06107202061002010BD8A
:101EE00010B5FFF7E8FF10BDFEE70000FEB51B4888
:101EF000194900250160891501244561C0E90214D2
:101F0000052606614FF460214560C161FEF71AFBAA
:101F1000CDE900540225694610480295FEF736FACD
:101F200069460E48CDE90045FEF730FA0324CDE9B5
:101F3000005469460948FEF729FA009404246946CA
:101F400006480194FEF722FACDE9004669460348A7
:101F5000FEF71CFAFEBD000000240140140A002018
:101F60002DE9F041344886B0816941F0100181616A
:101F7000816901F010010491816941F020018161C2
:101F8000816901F020010491816941F004018161BE
:101F9000816901F004010491816941F008018161C6
:101FA0008069264E00F008004FF46044049000223F
:101FB00021463046FEF71FFFDFF8848077150022A8
:101FC00039464046FEF717FF009401240225694672
:101FD000304603950194FEF72BFE4FF6F84000269D
:101FE000CDE90006694602944046FEF721FE4FF413
:101FF0000740CDE90006694602941248FEF718FE34
:10200000200200901048CDE9010469464046FEF7E1
:102010000FFECDE90074694640460395FEF708FEC1
:10202000002211461720FEF75FFF1720FEF750FF32
:1020300006B0BDE8F0810000001002400010014031
:10204000000C0140000801400000111010B50022F2
:102050000849094800F080FC0849074800F043FEA1
:102060000749054800F0B3FABDE81040024800F007
:1020700087BE000018000020F0070020C0000020EC
:1020800004000020FEE770470907090E002806DA61
:1020900000F00F0000F1E02080F8141D704700F1FF
:1020A000E02080F8001470472DE9FC5F4FF0000835
:1020B0000446ADF80480ADF8008048F60F7B4FF081
:1020C00002094FF4806692E1BDF8041011F00F0789
:1020D0002BD030F82710ADF80010BDF8001009041F
:1020E00078D530F8272040F68F710A4020F8272055
:1020F00004EB471595F8120205F5027500282068D3
:1021000069D0297830F8212052047DD5B0F85030BC
:1021100009EBC101194406EB4101415AC1F3090120
:102120005FEA010A71D0EA88D0E0BDF80410C90660
:102130002AD4018801EA0B010180206804F12805F6
:10214000B0F850202B7809EBC301114406EB410194
:10215000405AC0F309006064E16B0844E063002169
:102160002046FEF70EFF94F824000028ABD0A869A3
:102170000028A8D194F82400216840F08000A1F83C
:102180004C0084F8248032E1018804F50275ADF832
:102190000010BDF8001009051ED5B0F850302978A0
:1021A000062202EBC101194406EB4101405A04F535
:1021B0007B71C0F30903EB61AA88206801F004FA7F
:1021C0002068018840F68F72114001802046FFF799
:1021D000E4F80CE1A0E055E0BDF800100904D2D508
:1021E000028840F68F710A4002802068B0F85030B3
:1021F0002978062202EBC101194406EB4101405A3D
:1022000083059B0DEB6101E051E063E008D0AA88F3
:102210006969206801F0D8F9E9696869084468616A
:1022200000212046FEF7B4FE2068B0F85010891D4A
:1022300006EB4101014428693E280CD9C0F34F1236
:10224000C00601D1521E92B24FF6FF7000EA822002
:1022500040F4004009E0C0F34F02C00701D0521C17
:1022600092B24FF6FF7000EA822008602168088869
:102270004BF68F72104080F4405048F280021043B9
:102280000880B4E0B0F850202B78062101EBC301A0
:10229000114406EB4101415AC1F309015FEA010A09
:1022A00024D0AA885346696901F08EF91EE0B0F87F
:1022B0005020062303EBC101114406EB4101415AB2
:1022C000C1F309015FEA010A04D02A89534669690A
:1022D00001F07AF92978206830F8213048F68F72B9
:1022E000134048F2C002134320F82130E96901EBA2
:1022F0000A00E861696901EB0A026A61AB6913B11E
:102300002869504504D929782046FEF741FE03E0AC
:1023100029782046FEF7AAFEBDF80000000666D523
:10232000206804EB471530F8271001EA0B0120F86C
:10233000271095F8320028350028206812D0297817
:1023400030F82120B0F8503052061ED509EBC101FB
:10235000194406EB4101405A83059B0DEB6124D0E3
:10236000EA881EE0B0F850302A7809EBC20119441F
:1023700006EB4101405A83059B0DEB6121D0AA88F1
:102380006969206801F037F91BE0062202EBC10100
:10239000194406EB4101405A83059B0DEB6104D0C3
:1023A0002A896969206801F026F92978206830F8BF
:1023B000212048F68F731A404CF280031A4320F80C
:1023C00021202068B0F850202B7809EBC30111447C
:1023D00006EB4101405AC0F30900E86169690A1837
:1023E0006A612978AB69204663B1FEF78AFE2068EE
:1023F000B0F84410ADF8041009043FF565AE0020B4
:10240000BDE8FC9FFEF7BDFDF1E710B5FEF7FEFC51
:10241000BDE81040FFF764BD30B593B001200090D7
:1024200000040024CDE901040225CDE907504FF452
:10243000E01009906846FFF719FA0F20CDE90A0568
:102440006802CDE90C4002210AA80E94FFF76CF84F
:1024500012200F90A803CDE911040FA8FEF7D0FFBA
:10246000FFF7A6F94FF47A71B0FBF1F0FFF724FD06
:102470000420FFF714FD00221146501EFEF734FD24
:1024800013B030BD0D48016841F0010101604168A1
:102490000B4A1140416001680A4A1140016001681D
:1024A00021F480210160416821F4FE0141604FF474
:1024B0001F0181600449C00308607047001002409A
:1024C0000000FFF8FFFFF6FE08ED00E0D0F818026C
:1024D0000021017508467047D0F81812044A002000
:1024E0000B5C1354401CC0B20828F9D3002070477D
:1024F0004A00002010B50446012100F049FA0221EB
:10250000204600F045FAD4F8180250B1D4F81C0265
:1025100004F5067480688047206800F037FD0020CD
:102520002060002010BD10B5D0F8184221690129A3
:1025300008D1D0F81C0223786178C2681846904709
:1025400000202061002010BD9921018000487047C3
:10255000FC0000200A21018000487047A4010020EF
:1025600070B50646002520230322812100F010FBD0
:10257000202303220221304600F00AFB20230322FD
:102580000421304600F004FB182000F001FDC6F8DD
:102590001802D0B1044600202075D6F81C0240680D
:1025A0008047022322461946304600F0FBFA0823F2
:1025B00022460221304600F0F5FA02232246042189
:1025C000304600F0EFFA284670BD0125FBE70246D1
:1025D0000220002902D00020C2F81C12704710B55A
:1025E000134690F8FC41D0F81822032C07D1147D33
:1025F0002CB9012414750A46812100F059FB0020F2
:1026000010BD000070B500220D78D0F818321446C5
:1026100015F0600525D0202D4BD14A78921E0A2A4C
:102620001BD2DFE802F00F081A1A1A1A1A130B0548
:10263000887858603DE00122191D31E04888000A81
:10264000986036E0012203F1080129E001221A61B5
:102650008A79194600F054F82BE000F046F8022081
:1026600070BD4D78062D04D00A2D1CD00B2D20D125
:102670001DE04B882225B5EB132F07D1CA88022A0B
:1026800000D90222D0F81C120C6808E02125B5EB15
:10269000132F04D1CA88084C092A00D909222146DF
:1026A00000F048F805E0012203F10C01F8E7887812
:1026B000D860002070BD00009801002010B5D0F84F
:1026C000142252689047002010BD134610B50A46E8
:1026D000002100F067FA002010BD134610B50A462D
:1026E000002100F0E5FA002010BD10B5044680215D
:1026F00000F0C7FA2046BDE81040002100F0C1BA42
:1027000010B50323C0F80821C0F8F431C0F80C213B
:1027100013460A46002100F045FA002010BD10B50E
:1027200005210023C0F8F4111A46194600F03AFAC0
:10273000002010BD10B502238261C0F8F431C261DF
:1027400013460A46002100F0B3FA002010BD10B570
:1027500004210023C0F8F4111A46194600F0A8FA23
:10276000002010BD10B50A46024903A000F0D1F8C0
:10277000004810BDF0050020437573746F6D20484C
:10278000494420436F6E666967000000122008808C
:10279000004870473800002010B50A460249034837
:1027A00000F0B7F8004810BDF0050020FC3A000822
:1027B00004200880004870473400002010B50A4605
:1027C000024903A000F0A5F8004810BDF005002064
:1027D000404D6963726F736F6674000010B50A46EE
:1027E000024903A000F095F8004810BDF005002054
:1027F000436F6E74726F6C6C6572000010B50A46A0
:10280000024903A000F085F8004810BDF005002043
:102810003030303030303030303031410000000066
:10282000F8B5044648880D46010A082954D2DFE865
:1028300001F05304091753534951D4F81012207C66
:102840000A6819E0207C02260028D4F8140205D07A
:10285000C16A68468847014646704AE0816AF8E7DF
:10286000C1B2062926D2DFE801F0030A0F14191EAF
:10287000D4F81012207C4A686946904718E0D4F8D2
:102880001012207C8A68F7E7D4F81012207CCA68FE
:10289000F2E7D4F81012207C0A69EDE7D4F81012A0
:1028A000207C4A69E8E7D4F81012207C8A69E3E7C3
:1028B00001461EE0C1B2D4F814026A46836B20467A
:1028C0009847F5E7207C38B9D4F81402416B684684
:1028D0008847EDE7207C20B129462046FFF705FF19
:1028E000F8BDD4F81402016B6846884701460720FA
:1028F0004870BDF800000028F2D0EA88002AEFD026
:10290000824200D90246ADF800202046FFF712FFB0
:10291000F8BD70B5002300281DD00446002502E054
:102920006D1CEDB2641C2678002EF9D1022404EB54
:1029300045041480CC545B1C0322CA5400245B1C45
:1029400006E0CA545B1CDAB28C54521CD3B2401C51
:102950000278002AF5D170BD10B580B1D0F81432DC
:1029600013B10023C0F8143209B1C0F810120121CC
:1029700080F8FC11027000F09DF8002010BD0220CC
:1029800010BD10B5D0F82002FEF72AFB002010BDC4
:1029900010B5D0F82002FEF703FB002010BD2DE992
:1029A000F0411746044641B1D4F8140242698AB393
:1029B00094F8FC01032842D043E0D4F8F411002538
:1029C00004F11400022933D1D0E902639E4207D9F1
:1029D000F31A83609AB239462046FFF77EFE12E072
:1029E0004068B0FBF3F103FB1101A1B9984212D387
:1029F000D4F8F81188420ED2002211462046FFF783
:102A00006CFEC4F8F85100231A461946204600F01F
:102A1000C9F80DE012E0D4F81402C16829B194F8A5
:102A2000FC01032801D1204688472046FFF777FEA6
:102A300094F80002012804D184F8005201E02046F5
:102A400090470020BDE8F08170B51546044641B1BD
:102A5000D4F8140282693AB394F8FC01032824D014
:102A600025E0D4F8F41104F5827003291FD1D0E9D0
:102A700002218A420BD9531A83600846834200D34D
:102A800003469AB229462046FFF71FFE0FE0D4F80E
:102A90001402016929B194F8FC01032801D12046F0
:102AA00088472046FFF753FE01E02046904700206C
:102AB00070BD000070B504462C482D49C0F81C4478
:102AC000C4F82002016008214160022181600321D5
:102AD000C16000218161C161016204F50874FEF7E3
:102AE000B5FB0022182311462068FEF72FFA582361
:102AF000002280212068FEF729FA982300228121F4
:102B00002068FEF723FAD823002202212068FEF76E
:102B10001DFA4FF48C73002202212068FEF716FA8A
:102B20004FF4AC752B46002283212068FEF70EFA85
:102B30002B46002204212068FEF708FA4FF4CC73DC
:102B4000002285212068FEF701FA4FF4EC73002281
:102B500005212068FEF7FAF94FF40673002286215A
:102B60002068FEF7F3F9002070BD0000D0010020BE
:102B7000005C00400A06D0F8200201F07F0100EB63
:102B8000411002D590F82A00704790F80A02704769
:102B900010B51C461346D0F820022246FEF744FA30
:102BA000002010BD10B5D0F82002FEF75FFA00201B
:102BB00010BD70B50022044608231146FFF7E8FF58
:102BC00008252B46002280212046C4F81051FFF72B
:102BD000DFFF0120256284F8FC01D4F8180228B137
:102BE000D4F814022179426820469047002070BD35
:102BF00090F8FD1180F8FC110020704710B590F896
:102C0000FC11032904D1D0F81412C96901B1884715
:102C1000002010BD01740020704710B5D0F82002CC
:102C2000FEF7A7FB002010BD70B5044600F502704A
:102C3000054600F044F80120C4F8F401B4F80E028F
:102C4000C4F8F80194F8080210F01F010AD0012915
:102C50000DD0022910D000F08001204600F011F8BC
:102C6000002070BD2946204600F08FF8F8E729467D
:102C7000204600F071F9F3E72946204600F0FEF8FF
:102C8000EEE710B5D0F82002FEF710FA002010BDD4
:102C900010B5D0F82002FEF787FB002010BD90F899
:102CA000FC1180F8FD11042180F8FC110020704710
:102CB00010B5D0F82002FEF724FA002010BD0A78E3
:102CC00002704A7842708A78CB7802EB0322428005
:102CD0000A794B7902EB032282808A79C97902EB67
:102CE0000121C18070470246002011B1C2F81412C0
:102CF00070470220704710B5D0F8142202241AB190
:102D00001268904700B90024204610BD70B50E46E9
:102D10001A4D897804462970012928D894F8FC01B5
:102D2000022802D0032822D105E099B10320616076
:102D300084F8FC0109E091B1606888420AD0C1B210
:102D40002046FFF7BBFC297861602046FFF7D3FFE0
:102D500002280CD02046BDE87040FFF7F8BC0220E6
:102D600084F8FC0120466160FFF7A8FCF2E73146D9
:102D70002046BDE87040FFF7B8BC0000AE0100205F
:102D800010B5FFF785FF002010BD2DE9F0410026AA
:102D90004B78012532460A2B43D2DFE803F03C583A
:102DA0004251420805422A27FFF73AFD63E00446F4
:102DB0008888C8B9C888B8B9887800F07F0794F8BF
:102DC000FC01032810D084F8FE7139462046FFF735
:102DD00024FF2046FFF7BBFC1FB1022084F8FC0152
:102DE00049E084F8FC5146E020461AE0FFF78EFFE8
:102DF00041E0CB88012B14D190F8FC31022B02D09A
:102E0000032B0ED104E08260012200F1080114E0DE
:102E10000122011D11E090F8FC21022A04D0032AAE
:102E200002D0FFF762FC26E0C560D0F8041209B1B9
:102E30000321C160022200F10C01FFF77BFC1AE0C4
:102E400004464888012816D1C4F804520BE0044611
:102E500090F8FC01022801D00328C5D14888012838
:102E600009D1C4F80422D4F814028268204690479D
:102E70002046FFF76CFC3046BDE8F08170B50D468A
:102E80000446287800260979C0F34110012806D0AD
:102E90006878A0B301281FD003283FD107E0D4F8F9
:102EA00014022946826820469047002070BD94F89D
:102EB000FC01022817D003282CD1688828B921B139
:102EC000802902D02046FFF7DCFED4F81402294600
:102ED00082682046904713E094F8FC01022802D053
:102EE000032817D103E0C9B180291BD116E06888F7
:102EF000A0B9480604D02046FFF743FDE5E703E00C
:102F00002046FFF724FC09E094F8FC01022807D0D2
:102F100003280BD029462046FFF7E7FB304670BD5B
:102F20004806FBD02046FFF7ACFEF7E7080601F0A5
:102F30007F0004EB001501D5143501E005F582751D
:102F40002046FFF717FE00B1012028600222294623
:102F50002046FFF7EFFBE1E770B5054690F8FC016E
:102F60000C4603280DD1207901280AD8D5F814027F
:102F7000826828469047E08830B92846FFF7E7FB8B
:102F800002E02846FFF7B1FB002070BD704700004B
:102F900000487047B40100202DE9F047CC780A784A
:102FA00048F68F1334B1012C6DD0022C08D0032CBD
:102FB00013D10BE030F822401C4044F400730AE0C7
:102FC00030F822401C4020F8224006E030F8224031
:102FD0001C4044F4C06320F822300C7830F82450B0
:102FE00048F68F72154048F280031D43254320F8B0
:102FF00024508D7A48F6BF7904274BF68F7A48F231
:10300000C0044CF28006EDB30D7830F825C048F2CC
:1030100080180CEA020C4CEA080C20F825C0CD8878
:10302000B0F850C025F0010591F800800CEBC80CF9
:1030300000EB4C0CCCF800540D89B0F850C025F0D2
:10304000010591F8008007EBC807674400EB4707CC
:10305000C7F800544D78002D0D7830F825704FEAF0
:1030600047477DD0002F05DA30F8257017403743E9
:1030700020F825700D7830F825707F0608D530F8D7
:10308000257001E024E01DE01740274320F825705B
:103090000C7830F824501540354320F824500C7833
:1030A00030F8242002EA09021A4320F824200A7882
:1030B00030F8221001EA0A01194320F822100020FA
:1030C000BDE8F08730F822401C4044F4806382E77A
:1030D0004D78F5B18D88B0F8506025F001050F7876
:1030E00006EBC70600EB4606C6F800540D7830F82C
:1030F0002560760605D530F825601640264320F871
:1031000025600A7830F8221001EA090181F02001D7
:10311000D2E78C88B0F8505024F0010491F800C038
:1031200007EBCC073D4400EB4505C5F80044B0F87B
:1031300050400D78062707EBC5052C4400EB4407EB
:103140000C694FF6FF7C07F580673E2C0CD9C4F361
:103150004F15E40601D16D1EADB20CEA852400E0E6
:103160001EE044F4004407E0C4F34F05E40701D037
:103170006D1CADB20CEA85243C600C7830F824500C
:103180006D0405D530F824501540354320F82450FF
:103190000A7830F8221001EA0A0181F440518BE7E5
:1031A000002F05DA30F825701740374320F82570D6
:1031B0000D7830F82560760605D530F82560164084
:1031C000264320F825600E7830F826501540254318
:1031D00020F826500C7830F8242002EA0A0282F403
:1031E00040521A4320F824200A7830F8221001EACD
:1031F000090161E7002070472DE9F04391F80A804A
:1032000091F801C00A7848F6BF774BF68F7948F2FB
:10321000800348F2C0054CF2800648F68F74B8F17E
:10322000000F2ED0BCF1000F30F822C04FEA4C4CFA
:103230004ED0BCF1000F07DA30F822C00CEA040CC3
:103240004CEA060C20F822C00A7830F822C05FEA67
:103250004C6C07D530F822C00CEA040C4CEA050C83
:1032600020F822C00A7830F822502540354320F853
:1032700022500C7830F824203A401A4320F82420B9
:103280001BE0BCF1000F0ED030F82260760605D5A9
:1032900030F8226026402E4320F822600A7830F869
:1032A000221039400EE030F822506D0405D530F878
:1032B00022502540354320F822500A7830F8221059
:1032C00001EA0901194320F822100020BDE8F0832B
:1032D000BCF1000F07DA30F822C00CEA040C4CEA0B
:1032E000060C20F822C00A7830F82260760605D550
:1032F00030F8226026402E4320F822600E7830F805
:10330000262022402A4320F826200C7830F824205A
:1033100002EA09021A4320F82420BFE70020704780
:1033200000207047012120F8401F0021018081808A
:1033300001820846704730F8401F21F43D4101806A
:10334000002070470020704730B54D780A78002D76
:1033500048F68F7430F8225048F2800312D06D0680
:1033600007D530F82250254048F2C004254320F804
:1033700022500A7830F8221048F6BF74214081F0BC
:10338000300111E06D0407D530F8225025404CF291
:103390008004254320F822500A7830F822104BF69A
:1033A0008F74214081F44051194320F822100020ED
:1033B00030BD10B50A7848F2800352B1497800292F
:1033C00030F8221010D048F6BF74214081F010016F
:1033D0000FE001884BF6BF72114081F4805181F0FB
:1033E00010011943018007E04BF68F74214081F4EE
:1033F0008051194320F82210002010BD2DE9F04122
:103400000D460646896995F801C00023AA7A02276D
:1034100028690C4648F28008BCF1010F05D08142B2
:1034200052D90446081AA8614FE0814203D90446E4
:10343000081AA86100E0AB617AB1287836F820104C
:103440004906B6F8501007EBC000084406EB4000F0
:10345000C0F8004412D52A8911E0A3B2AA883046E8
:10346000696900F0C8F8B6F85000297807EBC10187
:10347000084406EB4000C0F800441CE0EA88A3B210
:103480003046696900F0B7F8687848F68F7110B176
:10349000012807D00FE0287836F820200A4048F2AB
:1034A000C00105E0287836F820200A404CF280015F
:1034B0000A4326F82020297836F8210048F6BF7202
:1034C000104080F0300067E0AB6106234FF6FF70DC
:1034D0001AB1BCF1000F1BD056E0B6F850102A7894
:1034E0003E2C03EBC202114406EB410202F580625E
:1034F00039D9C4F34F11E30632D000BF00EA81206E
:1035000040F4004002E000BF00EA812010603BE090
:10351000B6F850102A783E2C07EBC202114406EB95
:10352000410202F580620BD9C4F34F115FEAC46C0B
:1035300001D1491E89B200EA812141F4004108E02D
:10354000C4F34F015FEAC47C01D0491C89B200EA90
:103550008121116069780029BFD001290AD013E0C8
:10356000491E89B2CAE7C4F34F01E307CCD0491C16
:1035700089B2C9E7B6F85000297807EBC1010844C1
:1035800006EB4000C0F80044297836F821004BF6DD
:103590008F72104080F4405040EA080026F8210065
:1035A0000020BDE8F08130F8401F41F43D4101802A
:1035B000002070470148FDF7C3BD0000D001002086
:1035C000B0F84400704700005B1C00EB42005B0851
:1035D00000F5806006D000BF30F8042B21F8022BE4
:1035E0005B1EF9D170470020704711B98021A0F807
:1035F0004C100020704710B55B1C00EB42005B08CC
:1036000000F5806009D011F8012B5B1E11F8014B09
:1036100042EA042220F8042BF5D110BDFEE7000099
:1036200037490378CA7813B142F0100201E002F082
:10363000EF02CA704278002ACA7802D042F0200213
:1036400001E002F0DF02CA708278002ACA7802D054
:1036500042F0400201E002F0BF02CA70C278002AC4
:10366000CA7802D042F0800201E002F07F02CA7004
:103670000279002ACA7802D042F0010201E002F089
:10368000FE02CA704279002ACA7802D042F00202D1
:1036900001E002F0FD02CA70194A8379927813B1F1
:1036A00042F0400201E002F0BF028A70C279002AB3
:1036B0008A7802D042F0800201E002F07F028A7034
:1036C000027A002A8A7802D042F0100201E002F069
:1036D000EF028A70427A002A8A7802D042F02002F1
:1036E00001E002F0DF028A70807A0028C87802D0F8
:1036F00040F0040001E000F0FB00C87070470000DB
:103700006000002030B50F4CA57805F0F005A570DD
:1037100010B145F00105A57021B118B9E8B240F02B
:103720000200A0702AB1002B0BD1A07840F0040059
:1037300006E0002B05D0002A03D1A07840F0080055
:10374000A07030BD6000002030B5CCB2C1F30725B9
:10375000084BD1B2C2F30722122806D0132803D196
:103760009C72DD7219735A7330BD9C71DD711972D0
:103770005A7230BD60000020014A107151717047CB
:103780006000002002E008C8121F08C1002AFAD118
:1037900070477047002001E001C1121F002AFBD1D1
:1037A000704700001148104A1021026081800021FA
:1037B000817101238260838181730223026183828C
:1037C00081758161818381770162818480F826100F
:1037D00004238262838580F82E1002630822828689
:1037E00080F836107047000000080140080B0020E8
:1037F00030B528480021284A016081808171531426
:103800008260838181735B000261838281755B00CA
:1038100082618383817714150262848480F8261084
:10382000D5148262858580F82E1020250263858656
:1038300080F8361040258263858780F83E10082581
:103840000264A0F8445080F8461010258264A0F865
:103850004C5080F84E1002659214A0F854200F4A84
:1038600080F8561095158265A0F85C5080F85E10BF
:1038700055150266A0F8645080F866108266A0F8BC
:103880006C4080F86E100267A0F8743080F87610F3
:1038900030BD0000900A0020000C014000080140EB
:1038A000064805498A150160828000228271816084
:1038B0008021818182737047000C0140400B002001
:1038C00008B5FDF7ABFAFEF7A7FDFEF749FB1B486D
:1038D000416941F0010141614069002200F00100AD
:1038E000009011460B20FDF7FFFA0B20FDF7F0FAD0
:1038F000FEF7FCFAFEF7AAFB1148FDF717F910498D
:1039000005223831A1F16800FCF7EEFE0C48303892
:10391000FCF770FFFFF76CFFFFF744FFFFF7C0FFF6
:10392000084C00BF00F01CF800F086F800F0A8F882
:10393000142205492068FEF752FEF3E7001002400A
:10394000440A0020140000206000002010B5401A36
:10395000029CE41A6043511A90FBF1F0184410BD28
:10396000FEB50024324D2646009401946F46029421
:1039700055F8340048B105EBC4018988FDF736FAE3
:103980000A2C02DCF8B100203855641C0F2CEFDB48
:1039900028488088B0F5967F17D30124B0F5487F7A
:1039A0000ED8C0F54870052190FBF1F087B2FCF706
:1039B000B9FB90FBF7F107FB110080B2052804D298
:1039C0008DF8004003E00120DEE78DF800606846D6
:1039D000FFF726FEB5F85C10A86DFDF707FAF0B109
:1039E0005FF00004B5F86410286EFDF7FFF9C0B170
:1039F0005FF00006B5F86C10A86EFDF7F7F990B10E
:103A00005FF00007B5F87410286FFDF7EFF960B1AB
:103A100000233A4631462046FFF774FEFEBD0124DE
:103A2000E0E70126E6E70127ECE70123F1E70000E4
:103A3000900A0020A600002038B5104C47F6FF7110
:103A4000B4F9020063280BDCCB4310F1630F01DAF9
:103A5000194605E0642200915142FFF777FF01B259
:103A600000221220FFF770FEB4F91020B4F90E10F6
:103A7000BDE838401320FFF767BE0000A600002015
:103A80002DE9F8431C4C207801282FD1FF25002375
:103A9000009540F6B4721946B4F90800FFF756FFD6
:103AA00000F0FF090023009540F62A521946B4F9A8
:103AB0000600FFF74BFF47F6FF7500F0FF08EE43E7
:103AC00040F6C877009533463A460021B4F90A001B
:103AD000FFF73CFFE081009533463A460021B4F9F8
:103AE0000C00FFF733FF208200202070494640463B
:103AF000BDE8F843FFF740BEA6000020B20358001F
:103B000062006F00780020005300650063007500BC
:103B1000720069007400790020004D006500740097
:103B200068006F006400200033002C002000560065
:103B300065007200730069006F006E0020003100A4
:103B40002E00300030002C002000A90020003200A0
:103B500030003000350020004D0069006300720025
:103B60006F0073006F0066007400200043006F0058
:103B7000720070006F0072006100740069006F00D5
:103B80006E002E00200041006C006C0020007200CE
:103B9000690067006800740073002000720065000F
:103BA0007300650072007600650064002E0000005E
:103BB00000000001020304010203040607080900D3
:103BC000E03B000800000020B40100009001000864
:103BD000D83C0008B40100209C1100009437000874
:103BE0001152C0142021031B081B041A3504411371
:103BF0008D271B08B1041ABD041ADD041AFD041A2E
:103C000065041A990417040309041201001017022D
:103C1000FFFFFF085E048E021401010203010A1077
:103C200014199A0102A914A91EA928011916A24A59
:103C30000461251408F5244C080526B81A27101A23
:103C4000CD101AD904C11A491869041A550441142F
:103C500009029913040125A0FA09041502FF5D0168
:103C60001311214601012581141B13022516070596
:103C70008103201D04070502071B08092E1504FFF8
:103C80005D032A1B28600901834001042016856317
:103C900016051C0705832B4D02070504391A8507F5
:103CA0001D400705050715100904021501FF5D02F7
:103CB0002A09401C2286072E4A861922031FFFFD6F
:103CC0001304064119190C19221A11FB432202137D
:083CD0000A06290873400100F7
:04000005080000ED02
:00000001FF
